:100000000C9433040C9450040C9450040C9450043D
:100010000C9450040C9450040C9450040C94500410
:100020000C9450040C9450040C94661A0C94A81967
:100030000C940F1C0C9450040C9450040C94500419
:100040000C9450040C9450040C9450040C945004E0
:100050000C9450040C94C21B0C9450040C94500447
:100060000C9450040C9450040C9450040C945004C0
:100070000C9450040C9450040C9450040C945004B0
:100080000C9450040C9450040C9450040C945004A0
:100090000C9450040C9450040C9450040C94500490
:1000A0000C9450040C9450040C945004B408280987
:1000B000BC0886088A08C0088D08C308CE089808BE
:1000C0001E099C08D208A008D6080009A408DA086E
:1000D0000A09AA08E008EA089108C7089408CA08AB
:1000E000AF08E508F608160918098208B8083109AA
:1000F000090A0F0AFD09030A150A1B0A210A080B3F
:10010000080B380B380BE70B050C390D390D0A0CB1
:100110007D0C900C900CF8120E1315131B151B156B
:100120004D135E137113B113B613DE13011434149F
:10013000371443144D1464149B14AD14D214F414E6
:10014000B417DB179019DB17901927184A18901964
:100150004B195B1926201C203A2088208E208E20E7
:1001600088208E208E205B208E2065206F208E20A0
:100170008E208E208E2088208E208E2088208E201B
:1001800048208E208E208A208A208A208A208A2059
:100190008A208A208A208A208C208E2026201920DE
:1001A0008E208E208E208E208E208E208E208E20DF
:1001B0008E208E208C208E208E2088208E207D20E8
:1001C0007D207D207D207D207D207D207D207D2047
:1001D0008C20FD377A585A000004E6D6B446020057
:1001E000210116000000742FE5A3E0041E00F65D57
:1001F000003D888986D3DC0AE842C32492584258DD
:100200008FD8E75CA0D2616E26E888019A676C7887
:1002100087BC8D3709EA1EB48DA53C798586633F7E
:10022000DCC445A3F020FF20B36838F4E147483D23
:1002300020387ABFB68C85606E5065489DBFF14509
:10024000659A00CB0870F00D8B4A1FAD2C46E55720
:10025000768796C597A5F83BB30618E5BA58263BAE
:100260006FD11DB9704E90CBA2011CAC28C488F38D
:10027000AF5AB5A835418920DEBA194BD88387EF2C
:1002800023A69159B397806A57D50BF491BEA72A3C
:10029000FDC149A3E5679632ECBC7F2648731890F0
:1002A0002910872237F9BF395D5C948CC554EAFB6D
:1002B000AA949CA28F5BEC28F369972FF51E032765
:1002C000F8B010627E708FA4059055AE775C35A3B0
:1002D000F3AF83239E4BED2131B2B698AF2367591C
:1002E00029EEDD54D317B6000000AF16761E6389E1
:1002F0005200000192029F080000BF900B02B1C49F
:1003000067FB020000000004595A05010902A1011F
:1003100085020901A1000509190129081500250117
:100320009508750181020501093009311581257F84
:1003300095027508810609381581257F9501750894
:100340008106050C0A38021581257F950175088103
:1003500006C0C005010980A101850319012AB70063
:10036000150126B700950175108100C0050C090123
:10037000A101850419012AA002150126A0029501F8
:1003800075108100C005010906A101850605071940
:10039000E029E71500250195087501810205071977
:1003A0000029EF1500250195F07501810205081956
:1003B000012905950575019102950175039101C00B
:1003C0000660FF0961A1010962150026FF00952062
:1003D000750881020963150026FF009520750891B4
:1003E00002C005010906A101050719E029E715006A
:1003F00025019508750181029501750881010507A0
:10040000190029FF150026FF0095067508810005D3
:10041000081901290595057501910295017503914A
:1004200001C009025B00030100A0FA0904000001F9
:10043000030101000921110100012240000705818B
:100440000308000109040100020300000009211152
:100450000100012222000705820320000107050395
:10046000032000010904020001030000000921111A
:1004700001000122B60007058403200001120100DB
:100480000200000008091205420001010203011CDC
:10049000037600690061006C003A006600360034A3
:1004A000006300320062003300630000001003525A
:1004B0000065007600350037006C00700000001405
:1004C00003340032002E0020004B006500650062FE
:1004D0000073000000040309040000000000000095
:1004E000000000000000000000000000000000000C
:1004F000000000000000000000000000007E0F006F
:10050000D4FFFFFFC70000007800000000000000DB
:10051000002A2B280000000000000000000000005E
:100520000000000029000000002C1E34202122249D
:10053000342627252E362D3738271E1F202122232B
:100540002425263333362E37381F040506070809BD
:100550000A0B0C0D0E0F1011121314151617181983
:100560001A1B1C1D2F3130232D35040506070809E1
:100570000A0B0C0D0E0F1011121314151617181963
:100580001A1B1C1D2F3130354C35001E001F00205A
:100590000021002200230024002500260027002A35
:1005A000002B0014001A000800150017001C00188A
:1005B000000C00120013004C00E0000400160007BD
:1005C0000009000A000B000D000E000F003300347C
:1005D00000E1001D001B00060019000500110010BD
:1005E00000360037003800283200000000E300E247
:1005F0000021522C002C00A8002252E600E7000047
:1006000000010001000100010001000100010001E2
:1006100000010001000100010001001E021F022074
:100620000221022202230224022502260227024C72
:100630000001003A003B003C003D003E003F002D21
:10064000022E022F0230023102010040004100421E
:1006500000430044004500320264024A004D002C71
:100660003200000000010001000100010001000152
:1006700000010001000100000001001E001F002019
:100680000021002200230024002500260027004C22
:100690000001001E001F0020002100220023002472
:1006A000002500260027004C0001002D002E002F01
:1006B00000300031003A003B003C003D003E003F6E
:1006C0000001002900E700E6003900340040004145
:1006D000004200430044004500000000000100010A
:1006E0000001002A000100010001000100010000DA
:1006F00000010001000100010001000100010001F2
:1007000000010001000100010027782578237821ED
:1007100078000020780000000000000000000000C9
:100720000028782678247822780000000000000055
:1007300000000000000000000000000000000000B9
:100740000000000000007C0000000000000000002D
:100750000000000000010001000100000001000194
:10076000000100010001000000010001009B04C71E
:1007700027FA270000020002009704C727FA270083
:1007800000030001009C04C727FA270000040002B0
:10079000008104C727FA273E27050001009D04C7F2
:1007A00027FA270000060002008304C727FA270063
:1007B00000070002009904C727FA2700000800017B
:1007C000009E04C727FA270000090002008504C71D
:1007D00027FA2719270A0002008704C727FA2719D2
:1007E000270B0002008904C727FA2719270C0002EB
:1007F000008B04C727FA2719270D0002008D04C7B4
:1008000027FA2719270E0002008F04C727FA271995
:10081000270F0002009104C727FA271927100002AA
:10082000009304C727FA271927110002009504C76F
:1008300027FA271927120002009F04C727FA27006A
:100840000013000200A104C727FA270000140001CA
:1008500000A304C727FA2700001500000000009C31
:1008600026472700000011241FBECFEFDAE0DEBFCD
:10087000CDBF11E0A0E0B1E0ECE6FDE602C00590DE
:100880000D92A837B107D9F725E0A8E7B1E001C07C
:100890001D92A932B207E1F70E94A10D0C94B43663
:1008A0000C940000ACE0B0E0E8E5F4E00C946036B5
:1008B000DC0114962C91222311F40C949D0D7C01E3
:1008C00061E00E941B328C01F7018581882309F1C8
:1008D0008091CF029091D0020097D9F008171907A4
:1008E000C1F0FEE08F9FC0011124FC01E65EFC4FC9
:1008F0002081246020838B5E9C4FDC010D931C9330
:100900000E94061D1092CE0261E0C7010E941B32B8
:100910008C01F7013580332009F4C2C0C801975714
:100920008038910508F00DC1D02EFFE0F01710F4CB
:100930000C948E0D8FEF93E00E94D13581110C94B1
:100940008E0D0DE113E0DD2079F0011524E0120792
:1009500011F40C948E0DC8010E94D135811101C093
:10096000DA940F5F1F4FEFCF19821A821B821C820D
:10097000AA24AA9468013FEFC31AD30AC8010E94AF
:10098000D13589831A82882311F40C948E0D81301D
:1009900009F081C0480142E0840E911CC6010E940A
:1009A000D135B82E8A83882311F40C948E0D8FEFE5
:1009B0008B0D833060F4680153E0C50ED11CC40177
:1009C0000E94D1358B83811166C08601D3CF8BEF16
:1009D0008B0D833078F5380183E0680E711CC401FB
:1009E0000E94D1358B83811102C06301EECF680173
:1009F00094E0C90ED11CC3010E94D1358C83882399
:100A000021F32B813C812130AFEF3A0718F0922F70
:100A100080E001C0C901B6E0BB1631F0E7E0BE16C8
:100A200031F00E94082BD1CF0E94E32ACECF0E9442
:100A3000692ACBCFF4E0BF1611F06401C6CFC40120
:100A40000E94D135B82E680124E0C20ED11CC80125
:100A500003960E94D135BB2011F40C948E0D88238F
:100A600011F40C948E0D282F30E021503109A29EF4
:100A7000A001A39E500D11248B2D90E00197840FAF
:100A8000951F019708F4A1CFAFE9BFE01197F1F7E7
:100A900000C00000F6CFCE0101960E94251695CF2A
:100AA0006801E7E5DE1AFFEFCF16D10411F008F078
:100AB00062C06BE073E08C2D0E94901E892BE1F5E3
:100AC0008EE08C9DF0018D9DF00D1124EB5EFC4FAE
:100AD00082818130C9F480910B0390910C03892BA2
:100AE00059F180910D0390910E03892B29F180918A
:100AF0000F0390911003892BF9F4809111039091C9
:100B00001203892B49F018C08230B1F480910F0391
:100B100090911003892B81F02EE02C9DC0012D9D1A
:100B2000900D1124FC01E65EFC4F20812E7F208376
:100B30008B5E9C4F0E94061DD70115963C9033207A
:100B4000D9F00E35BCE71B0761F00F35ECE71E0747
:100B500061F00D35FCE71F0779F4809100018111E8
:100B600004C081E080930001D9C71092000180E0A9
:100B70000E94F11DD3C7312C80910001811108C062
:100B8000C80197558F3F910509F008F47AC1CAC191
:100B9000480120EE821A9108209022058091FC04E1
:100BA000282A80916004282A38E08316910480F472
:100BB00098012770332781E090E001C0880F2A95C3
:100BC000EAF7332011F0282A18C08095282215C092
:100BD000332009F416C110937B0100937A010E941F
:100BE000F71B6093C0027093C1028093C20290937E
:100BF000C3021092C8021092C702D7018D919C9136
:100C00000E94FD2121E030E0F90102C0EE0FFF1F3C
:100C10008A95E2F7FC87EB872091C9023091CA02DE
:100C200038872F8340917A0150917B015A874987F9
:100C30001D82432C512C5D81E52FF0E0EE0FFF1F4C
:100C4000EA52FC4FC080D180C114D10409F4F0C035
:100C5000211005C0D60112968C918111CEC0F601EB
:100C6000838190E02B853C8582239323892B09F493
:100C7000C4C08085982F977009F487E038E0831608
:100C8000910440F4332019F081FD09C0B6C082FD03
:100C900006C0B3C0332009F4B0C080FFAEC0D60197
:100CA000AD90BC900A151B0519F4332009F4A5C0BA
:100CB000EF81F885CE16DF0609F49FC0D6011D9698
:100CC000ED91FC911E97309721F08081882309F4E3
:100CD00094C0622DC6010E94601E882309F48DC055
:100CE0000A151B0511F4320102C0612C712CB62DBE
:100CF000B170BE8381E0A114B10441F0B11106C00E
:100D0000E985FA85AE16BF0609F080E080FF75C060
:100D100080E00E94F11DD092CA02C092C90281E017
:100D20008093C602D60115968C918093C402BE8131
:100D3000B11113C0AB2889F0F601808191819C012B
:100D400024503109213A310530F4682F81EE91E0C9
:100D50000E94381C02C00E949325D6011696AD90C1
:100D6000BC901797C5019A9581159F4110F4E0EE4C
:100D7000BE2255245394C50101978F339E4708F036
:100D8000512CD6011996ED91FC911A97309739F0B4
:100D90001B966D917C911C9781E0099558225520F6
:100DA00029F1F601868197810E947F348093C502E4
:100DB000C501F8E08F16910418F40E94A01D16C01A
:100DC0000497813A910530F46A2D81EE91E00E94FA
:100DD000601C0EC00E94F0308FE39CE90197F1F790
:100DE00000C000008A2D0E94C92502C00E94F03078
:100DF00091E0692660FE5BC1C3CEAD81AF5FAD837C
:100E00001ACF80917A0190917B010817190781F41C
:100E100010927B0110927A011092C0021092C102CE
:100E20001092C2021092C3021092C8021092C7021E
:100E30008091C9029091CA02009709F4A1CEB8E04E
:100E40008B16910438F4622D0E94601E811198CE99
:100E500081E014C0FC01208131810217130729F4BD
:100E6000311006C01092C60208C0332009F488CEA3
:100E7000DC0118968C9185FD83CE80E00E94F11DE7
:100E80007FCE5801BB24BEE00B9FF00111249F01CF
:100E90002B5E3C4F6901D70115969C911597E65E34
:100EA000FC4F808190FB80F9808315969C9199235B
:100EB000A1F10E94031C9093950180939401F60187
:100EC00082818F5F82839091CE0280916004892B12
:100ED00083838091220584830680F781E02D3097FB
:100EE00039F0D6011C966D917C911D97C60109952C
:100EF0008EE08A9DF0018B9DF00D1124E65EFC4F83
:100F0000808181FF03C090E080E002C0902F812F9C
:100F10009093CF028093D00205C081FF03C0C90126
:100F20000E94EC1C80919C0480FF92C00E94031CD4
:100F30006C01F70185818823B1F18091150182FF51
:100F400008C026E931E040E0B60180E090E00E9470
:100F50004F280431FCE71F07A9F005312CE71207E1
:100F600051F003313CE71307A1F480911501816032
:100F7000809315010EC080911501982F909590FBDC
:100F800080F903C0809115018E7F809315010E9426
:100F90001528C80190528115904358F51092A80465
:100FA0001092A70455C0013E110521F4809115014E
:100FB0008F7E06C0053E110531F4809115018F7DAD
:100FC0008093150116C0C80190528115904388F492
:100FD0008091150182FF3CC080919E0481FD38C044
:100FE00026E931E040E0B60180E090E00E944F2821
:100FF0002FC08091150180FF2BC0D70115968C91D1
:101000000832110538F40E311105B8F40430110519
:1010100078F41CC00933110538F40D32110590F431
:101020000B32110579F012C00436110559F00EC0CB
:1010300090919C0494FD0AC02AC190919C0493FD58
:1010400005C025C190919C0492FF21C1811132C03D
:10105000F801E851FC47E730F10508F4CAC1F7018F
:101060009581911132C00631FCE71F0709F01BC2C0
:1010700080916004282F2A7A30919B0430FDECC1C6
:1010800031FDF0C132FDF4C133FDF8C1992309F4FB
:10109000FEC181E0211101C080E080937C01222308
:1010A00009F4F3C165E381EE91E00E94601C0E94A7
:1010B000F03034C51092A8041092A704F801E8514A
:1010C000FC47E730F10508F494C11092CD02C80145
:1010D0009057839708F0BEC184E090E00E94D93514
:1010E0009093B1018093B001F801E150F047E232F2
:1010F000F10520F4EA5AFF4F0C9453368091B00169
:101100008160ACC08091B1018860B4C08091B001B1
:101110008260A4C08091B00120C08091B00188603D
:101120009DC08091B1011EC08091B1018260A2C0BA
:101130008091B001806192C08091B00180628EC0C8
:101140008091B00180648AC00E94D8248091B0014F
:10115000806884C08091B001886084607FC0809185
:10116000B1018260816086C08091B0018E7F76C0BF
:101170008091B101877F7EC08091B0018D7F6EC06C
:101180008091B00120C08091B001877F67C08091BD
:10119000B1011EC08091B1018D7F6CC08091B00102
:1011A0008F7E5CC08091B0018F7D58C08091B0016E
:1011B0008F7B54C00E94D8248091B0018F774EC09D
:1011C0008091B001877F8B7F49C08091B1018D7F75
:1011D0008E7F50C08091B00182FB222720F991E0E0
:1011E000922790FB82F990FB83F938C08091B1017E
:1011F000982F909591708E7F892B90FB81F93AC042
:101200008091B00186FB222720F991E0922790FB84
:1012100086F924C00E94D8248091B00187FB222740
:1012200020F991E0922790FB87F918C061E001C096
:1012300060E08EE090E00E94EF351EC08091B0012A
:1012400084FB222720F991E0922790FB84F906C0C5
:101250008091B001982F909590FB80F98093B00118
:101260000BC08091B10183FB222720F991E09227E6
:1012700090FB83F98093B1016091B0017091B1014D
:1012800084E090E00E940D360E94D82447C4882351
:1012900009F4A8C09091220580916004892B8D7F6C
:1012A00079F11092A8041092A70480919C0481FD0A
:1012B00027C0F80143E0F695E7954A95E1F7EE710E
:1012C000FF27EF59FB4F98012F70332781E090E003
:1012D00002C0880F991F2A95E2F78095909520818A
:1012E00031818223932391838083A70160E0C80129
:1012F0000E943428809122058D7F0E944D306EC05F
:1013000089E0F701A6E9B1E001900D928A95E1F735
:1013100010929B0110929901109298018091A7045C
:101320009091A80408171907E1F580919C0485FFA6
:1013300038C09091150191FF02C086FF32C08091A4
:10134000A5049091A6045601A81AB90AB701C801CC
:101350000E94332AA816B90620F58091600481FF07
:1013600008C08091150180618093150182E00E9480
:101370007D308091600485FF08C0809115018062F6
:101380008093150180E20E947D3060911501669581
:101390006170A7018091A7049091A8040E9434284D
:1013A000BDC38091220590916004982B9695917011
:1013B0002091150190FB21F9209315018D7F0E944A
:1013C0004D301093A8040093A704D092A604C092B5
:1013D000A5048091150184608093150182E00E942C
:1013E00091309CC3970140E0B601C8010E944F288C
:1013F00095C3E858FF4F0C94533606E221EE41EEB8
:101400006AE17CE723C007E225EE45EE6BE17CE76D
:101410001DC006E221EE40EE68E17CE717C007E25E
:1014200025EE44EE69E17CE711C006E221EE42EED2
:101430006CE17CE70BC007E225EE46EE6DE17CE750
:1014400005C008E221E045EE6EE17CE7C7010E949D
:101450002E1D64C391E007CE482F447409F410CECA
:1014600020E00ECE482F417109F40CCE20E00ACEC8
:10147000482F487809F408CE20E006CE827209F49D
:1014800005CE992321F010927C0169E20CCE809167
:101490007C01882311F065E301C069E281EE91E0EF
:1014A0000E94381C04CE07372CE7120711F481E0A4
:1014B00005C008373CE7130771F482E0992319F05F
:1014C0000E949F2202C00E94922243E062E081E0DB
:1014D0000E94702223C3D70115968C918823E9F1CD
:1014E0000330BCE71B0729F148F40115FCE71F078F
:1014F00091F001302CE7120711F12FC00B353CE7BA
:10150000130741F10C354CE71407E1F00A351C478D
:1015100021F581E020C00E94D8248FEF94E3ACE055
:1015200081509040A040E1F700C000000E94B11B34
:10153000F5C26FEF7FEF80E090E00E940D360E94D1
:101540006934ECC28091B10182FB882780F991E077
:10155000892701C080E00E94A830D70117968D919D
:101560009C9118970097C9F4D70115968C911597FF
:101570000D911C91882349F0C8010E94C121D82EE9
:10158000682FC8010E94312204C0C8010E94FD21B9
:10159000D82EB8018D2D0E94732E0E94902E182FE8
:1015A000092FF701B580C680C2943FE0C322809125
:1015B000FF048770E9F0BB20D9F0892F807F803449
:1015C00051F080E2810F883098F0C11004C0892F5B
:1015D000807E803269F08091B10182FF09C082E093
:1015E0000E9491308091FF048770AA24A3948111F6
:1015F000A12C902E92942FE09222892D90E08C3095
:10160000910508F036C2FC01E158FF4F0C945336A7
:10161000902F9F70802F807FD92E19F0D29490EF59
:10162000D922BB20A9F0DD2009F403C280E2810F9A
:10163000883010F0111104C08D2D0E94843005C037
:101640008091CE02D82AD092CE020E94F030F1C111
:10165000812F0E949325DD2009F40BC280E2810FC7
:10166000883068F1112359F18D2D0E9476302AC0FF
:10167000902F9F70802F807FD92E803219F0D294C6
:1016800080EFD822112321F0113009F469C074C011
:101690008091B10182FD19C0BB2059F0DD2029F0F5
:1016A0008D2D0E9484300E94F03080E00E94C92578
:1016B000E0C180E00E949325DD2009F4DAC18D2D80
:1016C0000E947D300E94F030D4C1BB2081F1CC203B
:1016D00009F473C0F1E0CF1212C0809122058D2170
:1016E000D81609F4C6C10E94031C9093210580936B
:1016F000200580912205D82AD0922205BAC1809176
:101700009D04823008F4B5C1C812B3C18D2D0E946A
:101710008C258D2D0E9461308091FC049D2D982395
:10172000D91609F4A6C1D82AD092FC04A2C1CC20B3
:1017300069F080919D04823008F49BC121E0C212BF
:1017400098C1809160048D2109F493C18D2D0E9470
:1017500085258D2D0E9461308D2D0E945F3189C1BC
:101760008091A304BB2021F08C1508F482C125C010
:10177000C81608F07EC127C0BB2019F1CC20E9F0C3
:1017800020E0D7014C9111965C91119712966C91C3
:10179000129713967C91139714968C911497159623
:1017A0009C910E94F63180919E0481FD42C1F70117
:1017B000868180FF3EC18F7086838D2D0E948C258F
:1017C00058C1C1103FC18D2D0E94852552C1802F67
:1017D00086958695837019F0813061F04AC1BB20EF
:1017E00021F0812F902F937002C080E090E00E9442
:1017F000BA1C45C1BB2021F0812F902F937002C0ED
:1018000080E090E00E94951C3AC16B2D812F0E94D0
:10181000E03435C1802F8370A1F5B1102EC1412F66
:10182000429546954770440F440F212F2F7030E0AA
:10183000C901042E01C0880F0A94EAF714FF08C0FA
:101840002FE030E001C0220F4A95EAF7209501C051
:1018500020E0302F369536953370323069F040F401
:1018600040912305313019F0822B842302C0842B50
:10187000822B0E94AB2201C1282B80912305822755
:10188000F8CFBB2019F0802F817001C08695882386
:1018900009F4F3C0412F429546954770440F440F19
:1018A000212F2F7030E0C901042E01C0880F0A9447
:1018B000EAF714FF08C02FE030E001C0220F4A957C
:1018C000EAF7209501C020E0302F36953695337029
:1018D000323051F070F440918901313019F0822B8F
:1018E000842308C0842B05C0282B8091890182277E
:1018F00001C0822B0E946622C0C0F02FFF70DF2E35
:10190000BB2039F08F2F0E949F22812F0E948C25AF
:10191000B4C0812F0E9485258D2D0E949222ADC0DA
:10192000123F11F128F4103F41F0113FA9F17DC0A1
:10193000133F01F1143F61F178C08091A304BB20F3
:1019400021F0C81608F095C003C08C1508F491C0AA
:10195000202F2F7181E090E001C0880F2A95EAF7CF
:1019600090918901892711C0802F8F71BB2009F4C4
:1019700064C07BC0BB2041F081E0902F9F7101C00B
:10198000880F9A95EAF701C080E00E94662271C034
:101990008091B10182FD06C0802F8F71BB2009F4B8
:1019A00064C04BC080919D04823040F1BB20C1F0E7
:1019B0009091FF049770943039F40E948A30802F00
:1019C0008F710E94922254C0C81608F051C0202F77
:1019D0002F71D22E822F0E949F2263E08D2D07C08F
:1019E000C81640F00E948A3064E0802F8F710E94F8
:1019F000BF303EC081E00E9491303AC0BB2059F018
:101A0000302F3F71D32E832F0E949F2263E08D2DB4
:101A10000E94BF302EC081E00E94913041E04C1501
:101A200040F582E00E94913024C0BB2049F0CC20D8
:101A300011F0812F3BCE802F8F710E949F2219C001
:101A4000CC2089F0193329F48091A1049091A2044B
:101A500004C080919F049091A0040E944428812F8B
:101A60000E94932506C0802F8F710E94922201C090
:101A7000A12C88EF890D843010F40E94DF1C812F87
:101A8000902F0E94AE22811105C010927E0110920B
:101A90007D0128C0BB2019F0C110F7CF23C0C110B1
:101AA000F4CF20E0D7014C9111965C9111971296DA
:101AB0006C91129713967C91139714968C911497AE
:101AC00015969C910E94F63180919E0483FFDDCF94
:101AD00080917D0190917E010297B9F6812F0E943D
:101AE0007926D3CFAA20A9F08091FF0480FD11C0F0
:101AF000F70115828695869586950E949F22C701DB
:101B00000E9452048091FF048695869586950E94D6
:101B1000922260E0C7010E941B320FC08091FF0437
:101B2000877059F0F7018581882339F08091B101E0
:101B300082FF03C082E00E9491302C96E2E10C9477
:101B40007C36A9E3B0E0E7EAFDE00C94603685B7A7
:101B5000806885BF85B7806885BF84B7877F84BF6D
:101B60000FB6F894A895809160008861809360001A
:101B7000109260000FBE90E080E80FB6F89480935A
:101B80006100909361000FBE89EC9CE29093790113
:101B9000809378010E94512A0E94EF290E947B299C
:101BA0000E9402290E94EC190E940B1A8091E20007
:101BB00084608093E20078948091D7018823A1F01B
:101BC0001091E9001F709091EC00892F817090FDB9
:101BD00080E8182B1092E9008091E80083FD0E94B4
:101BE000D1161F701093E90082E084BD93E095BD8B
:101BF0009AEF97BD80936E000E94FE2B811102C068
:101C00000E94EE2B0EE111E033E2E32E31E0F32EE1
:101C1000D8018D918D018F3F11F00E94AA2DE01601
:101C2000F106B1F703E211E02FE2E22E21E0F22EFD
:101C3000F80181918F018F3F11F00E94AA2DE016CB
:101C4000F106B1F78AE0E4EAF1E0DF01282F1D9206
:101C50002A95E9F7EFE7F1E0DF011D928A95E9F7B0
:101C600080E090E00E94D935863E9E4F21F40E948C
:101C7000FE2B811102C00E94D12F82E090E00E94D1
:101C8000D1358093B20284E090E00E94D9359093E0
:101C9000B1018093B0010E94C12DEFEFF6E721E082
:101CA000E150F0402040E1F700C000000E94C12D4B
:101CB0008091A40180FF08C06FEF7FEF80E090E08B
:101CC0000E940D360E94B11B83E090E00E94D13546
:101CD0000E94AB2281E091E09093D4028093D302E2
:101CE0002E013BE2430E511C8091D701853009F053
:101CF00047C000E112E18091D701853009F03CC076
:101D00008091D701843021F11092D70288E190E0D0
:101D1000A0E40FB6F894A895809360000FBEA0933E
:101D2000600083B7817F846083BF83B7816083BF96
:101D30007894889583B78E7F83BF0FB6F894A89563
:101D400080916000886180936000109260000FBEF7
:101D50008091D601882309F4CECF0E94C12DE4EAF8
:101D6000F1E081919191892B09F06CC62EEA31E066
:101D70002E173F07B1F7BFCF0E94D8240E94DF1C67
:101D80000E94C12D9AE8E92E91E0F92E04EA11E0B3
:101D900024E931E0D801F701419151918D919D9154
:101DA000842795272E173F0719F0892BA9F305C023
:101DB000892B19F40E94AD2F43C084EA682E81E07C
:101DC000782E312CD3018D909D903D01F701A0809C
:101DD000B180A824B924A114B10449F1212CCC2448
:101DE000C394D12CC5018C219D21892BB9F02CAA3B
:101DF0003DAA0E94031C9FAB8EABF1E0F8AF91E0CF
:101E000094012C213D21232B09F490E099AF4CA99A
:101E10005DA96EA97FA988AD0E942A322394CC0CBB
:101E2000DD1C2CE02212DECFD7018D929C923394E0
:101E3000B2E0EB0EF11CE5E03E12C4CF0E94F71BAE
:101E40008091C7029091C802892B09F43EC040914D
:101E5000BC025091BD026091BE027091BF022FB7CB
:101E6000F8948091D8029091D902A091DA02B091B1
:101E7000DB022FBF841B950BA60BB70B4091B8025A
:101E80005091B9026091BA027091BB028417950714
:101E9000A607B707D0F08091C7029091C8020E94B0
:101EA000C6341092C8021092C7021092BC0210925F
:101EB000BD021092BE021092BF021092B8021092A0
:101EC000B9021092BA021092BB028091CF02909197
:101ED000D002892B31F180919401909195010E945B
:101EE000E81B7C0189E0D2011D928A95E9F7B201D5
:101EF0008091CF029091D0020E94332A8E159F05C7
:101F000080F48091CF02BEE08B9FC0011124FC01C0
:101F1000E65EFC4F208122FD04C08B5E9C4F0E9438
:101F2000061D80910A01882341F18091AF029091B2
:101F3000B002009711F10E94E81B2091010230913C
:101F4000020228173907C8F49091AD028091AE02C1
:101F5000981759F00E942821109202021092010253
:101F60001092B0021092AF0208C00E94BE201092E0
:101F7000B0021092AF020E94082180919C0480FF61
:101F80001EC08091150182FF1AC00E94031C20917F
:101F9000A5043091A604AC01421B530B2091130100
:101FA000309114014217530750F026E931E041E027
:101FB000BC018091A7049091A8040E944F2886E05C
:101FC000EBEFF2E09E012F5F3F4F7901D9010190C5
:101FD0000D928A95E1F71092FD021092FE02109286
:101FE000FF02109200038B81811104C08C81882331
:101FF00009F45FC08091F9029091FA020E94E81BF7
:10200000AC019091F402992339F020910F0130E056
:102010002417350758F04DC0209110018AE0289F01
:10202000900111242417350718F043C09F3F19F081
:102030009F5F9093F402DB80DD2061F00E947A2C98
:102040001D1414F491E001C09FEF899F802D11248D
:102050008093FD02DC80DD2061F00E947A2C1D144B
:1020600014F491E001C09FEF899F802D112480938B
:10207000FE023091FD023323E1F02091FE02222383
:10208000C1F045EB3403C0011124992319F090935A
:10209000FD0203C081E08093FD0235EB2303C00104
:1020A0001124992319F09093FE0203C081E08093DC
:1020B000FE028D81811104C08E81882309F45FC0E6
:1020C0008091F7029091F8020E94E81BAC01909178
:1020D000F502992339F02091110130E024173507DA
:1020E00058F04DC0209112018AE0289F90011124E0
:1020F0002417350718F043C09F3F19F09F5F909356
:10210000F502DD80DD2061F00E94412C1D1414F4E5
:1021100091E001C09FEF899F802D11248093FF02E1
:10212000DE80DD2061F00E94412C1D1414F491E04A
:1021300001C09FEF899F802D11248093000330916F
:10214000FF023323E1F0209100032223C1F045EB8D
:102150003403C0011124992319F09093FF0203C0A6
:1021600081E08093FF0235EB2303C0011124992302
:1021700019F09093000303C081E08093000346E0D0
:1021800050E0B7018BEF92E00E949736892BA9F4BB
:102190008091FD0281110FC08091FE0281110BC060
:1021A0008091FF02811107C081E09091000391119D
:1021B00003C080E001C081E080FD0E94172C86E012
:1021C000F701ABEFB2E001900D928A95E1F70E9422
:1021D000DF1C90919F01891721F080939F010E943D
:1021E000F71B8091D701843009F07ECD83E0809386
:1021F000E9008091E80082FF77CD8091E80085FFBB
:1022000021C00E943D1B81111BC0F0E2CF2ED12CBA
:10221000570109C08091F100D5018D935D01B1E0B6
:10222000CB1AD10869F08091E80085FDF3CF809149
:10223000E8008B778093E8000E943D1B882399F388
:1022400091E001C090E08091E8008B778093E800F6
:10225000992309F449CDC090AE01D090AF01898196
:10226000C114D10461F08E3F09F0E5C38A81833047
:1022700008F4B2C18550833008F0DDC3ADC18B30A6
:1022800009F491C110F5853009F46FC0B0F48230C3
:10229000C1F130F4813009F0CCC31A8289E0FBC26D
:1022A000833009F455C0843009F0C3C34C816B817D
:1022B0008A810E945D1F9D83E2C3873009F4B9C300
:1022C00008F0B7C30E94CC1EB6C3803109F4B1C078
:1022D00060F48D3009F456C008F452C08E3009F411
:1022E00054C08F3009F479C0A4C3823109F4A7C067
:1022F00008F4A2C0833109F4CAC08E3F09F46CC14E
:1023000098C38A81823009F4B3C3833051F081309D
:1023100009F08FC30E94F71B9B838C837D836E83A0
:102320008AC38091B6029091B702892B09F483C3C6
:10233000F701CE010B96D8012C9111963C910E5FBE
:102340001F4F328323833296E817F907A1F773C32F
:102350008A81823009F06DC36B817C818D819E8181
:102360000E9459360E94CA2B66C32D813E813227B6
:10237000232732274C816B818A810E94A51E5BC373
:1023800080E15BC01A8283EE86C20A811B8110271E
:1023900001271027AC80B12CBDE1AB16B10408F0C9
:1023A0004AC36701C801835E9C4F96012E193F09FD
:1023B0002A153B0508F03FC3033E110528F40E948F
:1023C000D135F601848303C0D60114961C920F5FA9
:1023D0001F4FBFEFCB1ADB0AE5CF8091B602909179
:1023E000B702892B09F427C30A811B811027012713
:1023F0001027CC80D12CEDE1CE16D10408F01BC300
:102400005701C801835E9C4F95012E193F092C1579
:102410003D0508F010C3033E110528F4D5011496BC
:102420006C910E94EF350F5F1F4FBFEFAB1ABB0AD5
:10243000E8CF0E94801EFFC284E08A83FCC20A812A
:102440001B81102701271027AC80B12CEDE1AE16BF
:10245000B10408F0F0C26701C801899696012E19EF
:102460003F092A153B0508F0E6C2003EF1E01F07D0
:1024700030F40E94D135D60114968C9302C0F60137
:1024800014820F5F1F4FFFEFCF1ADF0AE5CF0A81DB
:102490001B81102701271027AC80B12C2DE1A2163B
:1024A000B10408F0C8C2380139E2630E711C003E65
:1024B00041E0140708F0BFC280EE91E0801B910B51
:1024C0008A159B0508F4B7C28091B6029091B702B5
:1024D000892B11F067015EC000FF0FC0C80188960C
:1024E0000E94D13590E0982F88272D81822B81156D
:1024F0009C4731F48FEF8D8303C0C12CD12C03C0D6
:10250000CC24C394D12CC8018A0D9B1D450180FFAA
:102510001BC0B1E08B1A910855E0252E312C2C0EF2
:102520003D1E280C391CC3018A0D9B1D0E94D1350C
:10253000F101208130E0322F2227282B21153C4742
:1025400019F48FEFD1018C93F701EC0DFD1D2FEFE6
:10255000CF018E199F098815990508F0BBCF84819A
:1025600090E0982F88273581832B81159C4711F4A3
:10257000248325833296ECCF003EE1E01E0728F449
:10258000D60114966C910E94EF350F5F1F4FBFEF7D
:10259000CB1ADB0AC801899696012E193F092A1524
:1025A0003B0550F348C28091B6029091B702892B47
:1025B00009F441C240E250E0B70182E00E94731B7F
:1025C000EFEFF1EE24E0E150F0402040E1F700C0F1
:1025D00000000E94B11B2FC2EA818E2F90E08E3046
:1025E000910508F028C2FC01E557FF4F0C945336C3
:1025F00088E0E6E1F1E0DE01919601900D928A9586
:10260000E1F780E2D7011D928A95E9F786E0898398
:1026100088E0FE01B196DE011596E1C188E3898369
:1026200081E08A831B821C8206C28C8190E0982FF5
:1026300088272B81820F911D092E000CAA0BBB0B42
:1026400035E0880F991FAA1FBB1F3A95D1F7AC013F
:10265000BD01405E5F4F6F4F7F4F481759076A07B4
:102660007B0708F4E8C18833E1E09E07A105B105C6
:1026700008F0E1C14933F1E05F076105710520F021
:1026800048E351E060E070E0481B590BBC016E521A
:102690007E4FC7010E94B835CEC140E250E06FEFD7
:1026A00070E0C7010E94AD368091B6028983CA826C
:1026B0001B821C8283E08D838BE0E1C181E090E08E
:1026C0009093AF018093AE0182E390E09093A301D9
:1026D0008093A2010E94031C9093A1018093A0010A
:1026E000AAC1CD28A9F11091AB0113FB882780F96D
:1026F0001091A40118238091A0019091A1010E9442
:10270000E81B85369105F0F01123E1F00E94031CCF
:102710009093A1018093A0018091A2019091A301C7
:1027200001979093A3018093A201892B89F41092C1
:10273000AF011092AE0181E090E09093B7028093D8
:10274000B60206C082E390E09093A3018093A201B9
:102750008091B60289838091AE018A838091A20123
:102760009AC01092B7021092B60265C10B811C810B
:1027700040E250E06FEF70E0C7010E94AD3629E6FD
:1027800037E0A5E6B8E080E090E0AC014E5F5F4F37
:102790004132510508F04FC1F90165917491061756
:1027A000170730F4F701E80FF91F71836083CA013E
:1027B000245F3F4FA217B30741F73DC12B813C81F6
:1027C00089E697E0FC01459154912417350731F0D3
:1027D0000C9648E085369407A9F72BC1009709F4B9
:1027E00028C1FC013696259134912115310509F453
:1027F00020C14FE150E0BE016E5F7F4FF9010995A6
:1028000019C12B813C8185E698E009E617E0F801C3
:10281000459154912417350731F0045F1F4F8017FD
:102820009107A9F706C10115110509F402C1F801C4
:102830003896259134912115310509F4FAC04CE1FF
:1028400050E0BE016B5F7F4FC801F9010995009709
:1028500009F0F0C0F8013A9685919491009711F033
:10286000FC01099580E0E6C00E942929E4C0EB81C3
:102870008E2F90E08730910508F0DDC0FC01E7560F
:10288000FF4F0C94533680E2D7011D928A95E9F7E9
:1028900088E089838A838B83CEC08C819AE0D92E8D
:1028A0008E010F5D1F4FF8012D2D11922A95E9F72A
:1028B000B8010E94901E8983F801DE0112960190F2
:1028C0000D92DA94E1F7B7C01C818AE0FE013596DB
:1028D000DE01919601900D928A95E1F789A19AA166
:1028E0000E94BA2B9AA389A38BA19CA10E94BA2B08
:1028F0009CA38BA38DA19EA10E94BA2B9EA38DA306
:102900008FA198A50E94BA2B98A78FA3183070F4B6
:102910003AE0139FB0011124635D7D4F4AE050E01F
:10292000CE0181960E94133680E001C08FEF89832B
:102930000E94512A80C06C81CE0181962AE0DC0180
:102940001D922A95E9F7683008F042C0BAE06B9F03
:10295000B001112463587D4F35C01C818AE0FE010F
:102960003596DE01919601900D928A95E1F789A541
:102970009AA50E94BA2B9AA789A7183070F4EAE0AA
:102980001E9FB001112463587D4F4AE050E0CE01F4
:1029900081960E94133680E001C08FEF89830E94E8
:1029A000EF2949C06C81CE0181962AE0DC011D929D
:1029B0002A95E9F7683060F4BAE06B9FB001112402
:1029C00063537D4F4AE050E00E94C13580E001C072
:1029D0008FEF89838AE0FE01B196DE0112960190A5
:1029E0000D928A95E1F727C01C818AE0FE01359699
:1029F000DE01919601900D928A95E1F78BA19CA141
:102A00000E94BA2B9CA38BA3183070F4EAE01E9F9F
:102A1000B001112463537D4F4AE050E0CE0181960E
:102A20000E94133680E001C08FEF89830E947B29CA
:102A300002C08FEF898340E250E0B70182E00E943C
:102A4000731B52C909BD19BD09B400FEFDCF8091A9
:102A5000D8008F7D8093D8008091E00082608093C1
:102A6000E0008091E00081FDFCCF0E94D82443C9A2
:102A700088E290E00E94D1351B821C821D828E83E9
:102A8000DACF8091D90187FF11C08091E80082FDE3
:102A900005C08091D7018111F8CF11C08091E80065
:102AA0008B770BC08091D701882349F08091E80093
:102AB00080FFF8CF8091E8008E778093E80008953A
:102AC000982F973068F59093E900981739F0709136
:102AD000EC002091ED005091F00003C0242F762FE0
:102AE00050E021FD02C09F5FECCF3091EB003E7FB4
:102AF0003093EB003091ED003D7F3093ED0030914D
:102B0000EB0031603093EB007093EC002093ED000C
:102B10005093F0002091EE0027FDE5CF80E008956E
:102B20008F708093E90081E008952091DF0130915A
:102B3000E0012617370748F06115710539F4209137
:102B4000E8002E772093E80001C0B901FC0120E0E5
:102B50006115710579F18091D7018823F1F18530F4
:102B6000F1F18091E80083FD3CC08091E80082FD96
:102B70002EC08091E80080FFEBCF2091F300809180
:102B8000F20090E0922B6115710551F088309105AB
:102B900038F421912093F100615071090196F3CF2F
:102BA00021E0089709F020E08091E8008E7780937B
:102BB000E800CECF2111CFCF0AC08091D701882362
:102BC00061F0853061F08091E80083FD0AC080915A
:102BD000E80082FFF2CF80E0089582E0089583E06C
:102BE000089581E0089543E050E0BC0184E00E9434
:102BF000731B089546E050E0BC0184E00E94731B03
:102C00000895CF93DF93EC0180910901811105C0F4
:102C100048E050E0BE0181E00BC08091B00187FF29
:102C200003C040E284E002C048E081E050E0BE0121
:102C30000E94731B80E2FE01A5EBB1E001900D92B2
:102C40008A95E1F7DF91CF910895A0E0B0E0EBE243
:102C5000F6E10C946836EC018AE0A82E2881222344
:102C600009F49AC0213009F041C08981813039F4DA
:102C70008E010E5F1F4F8A810E94792608C0823024
:102C800041F48E010E5F1F4F8A810E94C925E80121
:102C900081C0833039F48E010E5F1F4F8A810E94FC
:102CA0009325F5CF843011F0219674C02A812296A5
:102CB00080E090E030E0205331092A30310558F4AB
:102CC000A89EA001A99E500D1124C901840F951F33
:102CD00021962881EFCF009709F45CC0EFE9FFE06F
:102CE0003197F1F700C000000197F5CFE22FF0E037
:102CF000E75FFA4FB490822F86958695869590E08F
:102D0000FC01E750FB4FE4902770F12C022E02C02B
:102D1000F594E7940A94E2F7F1E0EF22FF24FC0136
:102D2000E751FB4FC490D12C022E02C0D594C7941A
:102D30000A94E2F731E0C322DD24FC01E752FB4FA5
:102D4000049110E002C0159507952A95E2F70170ED
:102D50001127E114F10419F081EE0E94C925C11474
:102D6000D10419F086EE0E94C9258B2D0E94792688
:102D7000C114D10419F086EE0E949325E114F104E8
:102D800019F081EE0E9493250115110519F08CE2CE
:102D90000E947926219662CFCDB7DEB7EAE00C9487
:102DA0008436AAE2B0E0E7EDF6E10C946F36E9ED87
:102DB000F1E081EE91E02091F10021938E179F07C1
:102DC000D1F78091DA01833009F463C030F48130A7
:102DD00071F0823009F49DC0B4C08A3009F489C012
:102DE0008B3009F46EC0893009F0ABC020C08091EF
:102DF000D901813A09F0A5C08091E800877F8093CE
:102E0000E8008091DD019091DE01892B21F460E2E0
:102E100085EB91E003C060E080E090E070E00E940C
:102E200095158091E8008B778093E8008AC08091A7
:102E3000D901813209F085C08091DD019091DE01D8
:102E4000009719F0029709F07CC08091E800877F15
:102E50008093E8008091E80082FD05C08091D70151
:102E60008111F8CF6EC02091F3008091F20090E0C4
:102E7000922B029731F48091F100813011F086306D
:102E800021F48091F1008093B4018091E8008B7768
:102E900054C08091D901813A09F053C08091DD017D
:102EA0009091DE01892B09F04CC08091E800877F6A
:102EB0008093E8008091E80080FFFCCF80910901B9
:102EC00037C08091D9018132E1F58091DD01909187
:102ED000DE01892BB1F58091E800877F8093E800BF
:102EE0000E9441158091DB01809309010E94D82442
:102EF00028C08091D901813221F58091E800877F37
:102F00008093E8000E9441158091DC018093B30119
:102F100018C08091D901813AA1F48091E800877F9F
:102F20008093E8008091E80080FFFCCF8091B3019E
:102F30008093F1008091E8008E778093E8000E94F2
:102F400041158091E80083FFEBC18091D9019091F8
:102F5000DA01492F50E04A30510508F0E1C1FA0189
:102F6000E056FF4F0C945336803821F0823809F038
:102F7000D7C108C08091D5019091D601992389F0DD
:102F800082600FC08091DD018F70873008F0C8C16A
:102F90008093E9008091EB0085FB882780F91092EF
:102FA000E9009091E800977F9093E8008093F1000A
:102FB0001092F1007CC1282F2D7F09F0B1C1882328
:102FC00019F0823061F0ACC18091DB01813009F0F1
:102FD000A7C1933009F080E08093D6012EC0809184
:102FE000DB0181112AC08091DD018F702FEF280F46
:102FF000263008F095C18093E9002091EB0020FF76
:103000001CC0933021F48091EB00806214C0909139
:10301000EB0090619093EB0021E030E0A90102C049
:10302000440F551F8A95E2F74093EA001092EA0098
:103030008091EB0088608093EB001092E900809112
:10304000E800877F8093E8000E94411569C18111E3
:1030500067C11091DB011F778091E3008078812B9D
:103060008093E3008091E800877F8093E8000E94CE
:1030700041158091E80080FFFCCF8091E3008068DB
:103080008093E300111102C082E001C083E08093CD
:10309000D70146C18058823008F042C12091DB013F
:1030A0003091DC012C3D53E0350779F583E08A83CC
:1030B0008AE289834FB7F894DE01139620E03EE060
:1030C00051E2E32FF0E050935700E49120FF03C05A
:1030D000E295EF703F5FEF708E2F90E0EA3010F0D6
:1030E000C79601C0C0968D939D932F5F243149F7F9
:1030F0004FBF8091E800877F8093E8006AE270E02C
:10310000CE0101960E949515C0C08091DD0190917D
:10311000DE01432F552743305105B1F068F44130AB
:10312000510509F40CC14230510509F0F9C08BE595
:1031300090E0E2E2F4E057C04132510589F14232B9
:10314000510509F43CC0ECC0C901992781309105B3
:10315000B9F070F082309105D9F0039709F0E0C022
:10316000EFE8F4E0E4918E2F90E0EFE8F4E038C06F
:10317000E5EDF4E0E4918E2F90E0E5EDF4E030C071
:10318000EFEBF4E0E4918E2F90E0EFEBF4E028C059
:10319000EDEAF4E0E4918E2F90E0EDEAF4E020C057
:1031A0008330910508F0BCC0880F991FFC01E85CD2
:1031B000FE4F0190F081E02D89E090E014C0833053
:1031C000910508F0ADC0FC01EE0FFF1FEE5CFE4F55
:1031D0000190F081E02DDC01A15DBE4F8C9190E06B
:1031E000009709F49DC02091E800277F2093E80014
:1031F0002091DF013091E0012817390708F4C90157
:1032000040E0009789F12091D701222309F43DC0C5
:103210002530D9F12091E80023FD37C02091E80046
:1032200022FD2FC02091E80020FFEBCF4091F3005A
:103230002091F20030E0342B009759F0283031050E
:1032400040F444914093F100319601972F5F3F4F36
:10325000F3CF41E02830310509F040E02091E8004B
:103260002E772093E800CDCF4111CDCF0AC08091B9
:10327000D701882351F0853041F08091E80083FD2B
:1032800004C08091E80082FFF2CF8091E8008B7744
:103290008093E80045C0803809F042C08091E80082
:1032A000877F8093E8008091D8018093F10080911E
:1032B000E8008E77C7CE811133C08091DB019091F9
:1032C000DC019927029764F58091E800877F80935D
:1032D000E8001091DB011093D8010E9441151111F3
:1032E00006C08091E30087FD02C081E001C084E058
:1032F0008093D70142E061EC81E00E94601542E2D8
:1033000061EC84E00E94601542E261EC82E00E9480
:10331000601542E260EC83E00E9460158091D70165
:103320008091E80083FF10C08091E800877F809340
:10333000E8008091EB0080628093EB0005C082E1A1
:1033400090E0EDE7F4E04FCFAA96E3E00C948B36E3
:103350001F920F920FB60F9211242F933F934F930A
:103360005F936F937F938F939F93AF93BF93CF930D
:10337000DF93EF93FF93C091E900CF708091EC0051
:10338000D82FD17080FDD0E81092E9008091F00034
:10339000877F8093F00078940E94D1161092E90004
:1033A0008091F00088608093F000CD2BCF70C093A7
:1033B000E900FF91EF91DF91CF91BF91AF919F9184
:1033C0008F917F916F915F914F913F912F910F90CE
:1033D0000FBE0F901F901895E8EDF0E080818E7F72
:1033E00080831092E2001092DA001092E100A0EEC9
:1033F000B0E08C9181608C9380818F77808319BC41
:10340000A7EDB0E08C918E7F8C9380818F7E80833E
:103410001092B2010895A0E0B0E0E1E1FAE10C946D
:103420006A36C8EDD0E088818F7E8883E7EDF0E0D2
:1034300080818160808384E082BF81E08093B201DB
:1034400088818E7F888302EE10E0F801108210924E
:10345000DA0081EEC82ED12CF601108288818F7798
:10346000888388818068888388818F7D888319BC60
:103470001092D7011092D8011092D6011092D50166
:1034800090EEE92EF12CF70180818B7F808388817B
:103490008160888342E060E080E00E946015F60170
:1034A00080818E7F8083F80180818160808380812C
:1034B00088608083F70180818E7F8083888180612E
:1034C0008883CDB7DEB7E8E00C9486361F920F9262
:1034D0000FB60F9211242F933F934F935F936F93E7
:1034E0007F938F939F93AF93BF93EF93FF938091BD
:1034F000E10082FF09C08091E20082FF05C0809157
:10350000E1008B7F8093E1008091DA0080FF2AC088
:103510008091D80080FF26C08091DA008E7F809352
:10352000DA008091D90080FF18C080E189BD82E176
:1035300089BD09B400FEFDCF81E08093D701809161
:10354000B20181110FC00E94EC190E940B1A8091E8
:10355000E20084608093E20005C019BC1092D7019C
:103560001092B2018091E10080FF17C08091E200CB
:1035700080FF13C08091E2008E7F8093E2008091F3
:10358000E20080618093E2008091D80080628093A5
:10359000D80019BC85E08093D7018091E10084FFB9
:1035A00030C08091E20084FF2CC080E189BD82E1BF
:1035B00089BD09B400FEFDCF8091D8008F7D809336
:1035C000D8008091E1008F7E8093E1008091E2003D
:1035D0008F7E8093E2008091E20081608093E20020
:1035E0008091D801882311F084E007C08091E30026
:1035F00087FD02C081E001C083E08093D701809104
:10360000D7018091E10083FF27C08091E20083FF12
:1036100023C08091E100877F8093E10082E0809366
:10362000D7011092D8018091E1008E7F8093E10054
:103630008091E2008E7F8093E2008091E2008061C1
:103640008093E20042E060E080E00E94601580919B
:10365000F00088608093F000FF91EF91BF91AF91EF
:103660009F918F917F916F915F914F913F912F919A
:103670000F900FBE0F901F9018952091E40030918D
:10368000E50095E64091EC00842F817040FF23C057
:103690008091E80080FD1DC08091D701882399F0BA
:1036A000853099F08091EB0085FD11C04091E400D8
:1036B0005091E5002417350729F3915011F09A0134
:1036C000E1CF84E0089582E0089583E0089581E0E9
:1036D000089580E008954091E80042FFDDCF08950D
:1036E0008091B40108950F931F93CF93DF938B01C3
:1036F000EA019091D701943079F58F708093E900B9
:103700008FEF9091E800815095FD06C095ED9A9558
:10371000F1F700008111F5CF8091E80085FF1CC012
:103720000E943D1B882361F08091E8008E77809392
:10373000E80012C0F80181918F018093F100219778
:10374000209791F38091E80085FDF4CF8091E80007
:103750008E778093E800E4CFDF91CF911F910F9196
:10376000089587E797E790930108809300089AE00F
:1037700088E10FB6F894A895809360000FBE9093EF
:103780006000FFCF78941F920F920FB60F92112412
:103790008F939F93AF93BF938091D8029091D9025A
:1037A000A091DA02B091DB020196A11DB11D8093B8
:1037B000D8029093D902A093DA02B093DB02BF91B2
:1037C000AF919F918F910F900FBE0F901F90189502
:1037D0009C014FB7F8948091D8029091D902A091A2
:1037E000DA02B091DB024FBF821B930B08952FB713
:1037F000F8946091D8027091D9028091DA02909188
:10380000DB022FBF08952FB7F8948091D8029091D2
:10381000D902A091DA02B091DB022FBF08951F9266
:103820000F920FB60F9211248F939F93AF93BF9374
:103830008091D702811113C08091D8029091D90252
:10384000A091DA02B091DB024196A11DB11D8093D7
:10385000D8029093D902A093DA02B093DB02BF9111
:10386000AF919F918F910F900FBE0F901F90189561
:10387000209109012223C9F02091B00127FF15C032
:10388000262F2695269526952E31C8F4FC01E20FA9
:10389000F11D677081E090E001C0880F6A95EAF73A
:1038A00080959281892382830895FC010696228166
:1038B000621301C012823196E817F907C1F7089523
:1038C000209109012223C1F02091B00127FF14C0EB
:1038D000262F2695269526952E3130F5FC01E20FF0
:1038E000F11D677081E090E001C0880F6A95EAF7EA
:1038F0009281892B82830895FC0132962FEF30E06C
:103900004191641789F02F3F19F4411101C0232F11
:103910003F5F3630A9F72F3F39F0FC01E20FF11D70
:1039200027FDFA95628308950895A3E0B0E0EBE9DE
:10393000FCE10C9470362091D5023091D602281704
:103940003907A1F09093D6028093D502E091D3027B
:10395000F091D402309751F024E029839B838A832D
:103960000680F781E02DCE01019609952396E2E0CD
:103970000C948C36A3E0B0E0E0ECFCE10C947036E3
:103980002091D1023091D20228173907A1F09093EB
:10399000D2028093D102E091D302F091D402309709
:1039A00051F023E029839B838A830680F781E02DF1
:1039B000CE01019609952396E2E00C948C36E091B5
:1039C000D302F091D402309729F00190F081E02DDC
:1039D0000995089580E00895CF93DF93EC01EA857F
:1039E000FB85309719F06C857D8509958B810E9448
:1039F00076308C810E947D300E94F03086E0FE019E
:103A000011928A95E9F7DF91CF910895CF93DF93D3
:103A1000EC018D8181FD15C082608D839091CE0275
:103A20008B81892B8093CE028C810E9484300E94EE
:103A3000F030E885F985309721F06C857D85CE01E1
:103A400009951092D0021092CF028D8180FD03C0A3
:103A5000CE010E94EC1CDF91CF910895A0E0B0E070
:103A6000E4E3FDE10C9468367C015B01C42FD22FA6
:103A7000FC0185818823B1F04093CD020E94031C94
:103A80009093CC028093CB0280E28C0F883008F0B8
:103A900052C0C77081E001C0880FCA95EAF70E9442
:103AA0008C2549C08091CD02481335C08091CB024E
:103AB0009091CC020E94E81B6C01B701C5010E94E5
:103AC000332AC816D90638F510E21D0FCD17B9F004
:103AD00080E28C0F883040F4C77081E001C0880F0D
:103AE000CA95EAF70E948525183010F581E09D2FD0
:103AF000977001C0880F9A95EAF70E948C25802F55
:103B00000E9479261830B8F4D77081E001C0880F80
:103B1000DA95EAF70AC080E28C0F883060F4C7704B
:103B200081E001C0880FCA95EAF70E94852503C08D
:103B3000802F0E947926CDB7DEB7EAE00C94843658
:103B4000CF93DF93EC014091C0025091C10260918C
:103B5000C2027091C3022FB7F8948091D80290915D
:103B6000D902A091DA02B091DB022FBF841B950B22
:103B7000A60BB70B843F9140A105B105A8F4809135
:103B8000C0029091C102A091C202B091C302809381
:103B9000BC029093BD02A093BE02B093BF0284EF1B
:103BA00091E0A0E0B0E00EC00E94F71B6093BC0261
:103BB0007093BD028093BE029093BF0282E390E0B7
:103BC000A0E0B0E08093B8029093B902A093BA024B
:103BD000B093BB02D093C802C093C702DF91CF91CC
:103BE0000895FF920F931F93CF93DF930091C90223
:103BF0001091CA020115110509F45CC01092C802A7
:103C00001092C7021092C4021092C502D8011696F3
:103C10006D917C9117979B013A9521153F4108F4CE
:103C2000707EC62FD1E0611101C0D0E0F82ED8011E
:103C30001996ED91FC911A97309739F01B966D917A
:103C40007C911C9780E00995D823DD2379F08CEFD7
:103C50008C0F813A30F46C2F81EE91E00E94381C79
:103C600005C00E94F0308C2F0E949325E091C9027C
:103C7000F091CA0240815181FF2071F0808584FD5E
:103C80000BC08091C602882339F091E09A0121503F
:103C900031092F333E4708F090E090FF03C0CA017E
:103CA0000E94A01D0E94F0301092CA021092C90218
:103CB0001092C602C801CDB7DEB7E5E00C94893694
:103CC000FC0184818623C1F492819923B9F0808517
:103CD000692383FF04C081E0611111C00DC0892FE9
:103CE0008F7092959F70982B862F8F7062956F7052
:103CF000682B81E0961719F080E0089581E008951F
:103D0000CF93DF93CDE1D3E060E0CE010E94EF35A9
:103D10002196C11584E0D807B9F7DF91CF910895B6
:103D2000883080F49B01982F8AE0989FB00111247D
:103D3000635D7D4F4AE050E0C9010E94C13580E0DB
:103D400090E008958FEF9FEF08951F93CF93DF9337
:103D5000962F8430E8F46530D8F44C30C8F4632FE3
:103D6000122FC42FD0E0CC0FDD1F28E1929FC00D91
:103D7000D11D112498E7899FC00DD11D1124CE01BA
:103D800089960E94EF35612FCE018A960E94EF3509
:103D9000DF91CF911F910895AEE1B0E0E2EDFEE139
:103DA0000C946436A090B602B090B70281E090E027
:103DB0009093B7028093B602612CC12CD12C712C48
:103DC000E12CF12C00E010E046018E0C9F1CF80164
:103DD000EE0FFF1FE80DF91DE757FA4F25913491BB
:103DE000402F672D862D0E94A51E0F5F1F4F0C30A0
:103DF000110569F788E1E80EF11C7394E5E07E1285
:103E0000E1CFF8E7CF0ED11C639484E06812D7CFDE
:103E10000E9429291A8219821C821B821E821D82FD
:103E200018861F8288EC90E09A8789870DE212E05D
:103E30004AE050E0B801CE0101960E941336065FB9
:103E40001F4F0D37E2E01E0799F77E01FBE0EF0EF2
:103E5000F11C8AE0F70111928A95E9F74AE050E0F7
:103E6000B801C7010E941336065F1F4F0D3CF2E0F8
:103E70001F07A1F77E0185E1E80EF11C8AE0F7013A
:103E800011928A95E9F78FEF9FEF9A8F898F87E0DC
:103E90008E8F4AE050E0B801C7010E941336065FDA
:103EA0001F4F0D31F3E01F07A1F7B092B702A092A8
:103EB000B6026E96EEE00C9480360F931F93CF936C
:103EC000DF93843008F56530F8F44C30E8F4C42F03
:103ED000D0E0CC0FDD1F28E1629FC00DD11D112461
:103EE00038E7839FC00DD11D1124CE0189960E9411
:103EF000D13590E0182F0027CE018A960E94D13547
:103F00009801282BC90102C080E090E0DF91CF9199
:103F10001F910F910895893289F1F0F4843171F184
:103F2000B0F4873009F077C081E08093100184E11C
:103F300080930F018AE080930E018EE180930D0142
:103F400088E080930C0188E280930B0164C092EEBC
:103F5000980F9A30F0F05FC0803509F444C028F41F
:103F60008F3409F058C08AE03FC0813529F082358E
:103F700009F051C081E038C08FEF36C08091B502A2
:103F8000882379F11092B5021092B4021092B30214
:103F900042C08D518093B502833099F038F481305E
:103FA00069F08230D9F48FE091E00DC0853099F04E
:103FB00078F0863099F48BE091E005C080E191E0E3
:103FC00002C08EE091E09093B4028093B30223C0CC
:103FD0008DE091E0F8CF8CE091E0F5CF1092B50242
:103FE0001AC080E0089586EFE091B302F091B40228
:103FF000309789F02081082E000C990B820F911DBB
:104000008F3F910519F014F08FEF04C097FF02C0A5
:10401000108201C0808381E00895482F50E0FA01AA
:104020003597EF33F10508F079C0E655FF4F0C9452
:1040300053360E94D12F6CC08091B202817F8E7F57
:104040008093B20281E08093B10208958091B6021C
:104050009091B702892B09F45BC00E94D8242FEFFE
:1040600084E39CE0215080409040E1F700C00000D4
:104070000E94B11B8091B202982F9095917090FB95
:1040800080F98093B202911143C0897F877F10C06D
:104090008091B20281FB222720F991E0922790FBC8
:1040A00081F98093B202992399F18091B2028160E3
:1040B0008093B2022DC08091B20282FB222720F9A8
:1040C00091E0922790FB82F9ECCF8091B20283FBC2
:1040D000222720F991E0922790FB83F9E2CF0E94FA
:1040E000D8248091B00187FB222720F991E0922704
:1040F00090FB87F98093B0010BC0895391E001C018
:10410000990F8A95EAF7892F0E94AB220E94D82442
:1041100081E008958D51F2CF81E0F6CF80E00895DF
:10412000BC014091AD028091AE02942F981729F105
:10413000292F30E0F901EE0FFF1FEB55FD4F0190E5
:10414000F081E02DE617F70799F487E0869FF001EC
:10415000879FF00D1124EC5FFD4F81E08483941361
:104160000CC02F5F3F4F237033272093AD0208957B
:104170002F5F3F4F922F9370D9CF0895EF92FF9208
:104180000F931F93CF93DF9380913C028823D9F143
:10419000C09103028DE0F82E80913C02C81778F59B
:1041A000EE24E394EC0EE0920302D0E0FC9EF001DA
:1041B000FD9EF00D1124E35CFD4F84818823E9F01E
:1041C00087819085892B21F481859285019659F408
:1041D00000811181228133814481558166817781FB
:1041E00080850E940725FC9EF001FD9EF00D1124A4
:1041F000E35CFD4F14821092CE02CE2DCDCF1092F3
:104200003C0210920302CDB7DEB7E6E00C9488368C
:104210001092020210920102E4E0F2E08581811125
:1042200002C014821682379682E0EC33F807B1F7A9
:1042300008951092B0021092AF0210920A0180917C
:10424000AE028093AD020E9408210E94BE20089514
:10425000A0E0B0E0EEE2F1E20C946136C091AD0274
:1042600097E0992E01E010E02DE0322E34E0432E4D
:10427000552453948091AE02C81709F479C0D0E058
:10428000FE01EE0FFF1FEB55FD4F80819181989E3F
:10429000D001999EB00D1124AC5FBD4F14962C91A6
:1042A0001497211162C070903C02EDE3F2E020E02F
:1042B00030E0812C5D01271508F055C0E384F484BB
:1042C000D501CD90DC906FEF7FEF612C462D50E053
:1042D000DA01AA0FBB1FAC0DBD1D0D90BC91A02D26
:1042E000109731F0EA16FB0609F4BA016394EECF99
:1042F0006F3FBFEF7B0799F1D80102C0AA0FBB1F28
:104300006A95E2F78A2AB801062C02C0660F771F69
:104310000A94E2F7AB0141505109682D70E046174D
:104320005707E1F4329EF001339EF00D1124E35C57
:10433000FD4F989ED001999EB00D1124AC5FBD4FEA
:1043400012962D913C9113973087278344821082D7
:1043500011829287818715965C9205C014822F5F27
:104360003F4F3D96A8CF0E9490202196C37082CFE8
:104370000E94BE200E940821CDB7DEB7E1E10C9477
:104380007D36CF92DF92FF920F931F93CF93DF93EF
:104390006C010091890180912305082BC3E0D0E0D6
:1043A00010E0C8010C2E02C0959587950A94E2F79B
:1043B00080FD04C02197A8F7F12C09C0FC2EB6019E
:1043C0008C2F0E94732E0E94902E019799F38F2DAF
:1043D000DF91CF911F910F91FF90DF90CF900895C3
:1043E000CF93DF93EC010E94C121BE010E94732E86
:1043F0000E94902EDF91CF910895292F953078F566
:104400008C3068F590E03CE0239F800D911D1124D5
:10441000682F677023E0969587952A95E1F7FC0150
:10442000EE0FFF1FE80FF91FE452FD4F40E050E090
:1044300080E0219130E0062E02C0369527950A943F
:10444000E2F721703327042E01C0220F0A94EAF705
:10445000822B4F5F5F4F4330510559F7089580E03D
:104460000895292F953088F58C3078F590E03CE060
:10447000239F800D911D1124282F277051E001C02A
:10448000550F2A95EAF723E0969587952A95E1F747
:10449000FC01EE0FFF1FE80FF91FE452FD4F20E073
:1044A00030E070E04081CB01022E02C096958795E6
:1044B0000A94E2F78170819584278523842781936C
:1044C0002F5F3F4F2330310569F70895982F96707D
:1044D000963011F4886001C0877F80938901089528
:1044E0009091890121E030E0F90101C0EE0F8A9539
:1044F000EAF7D90102C0AA0FBB1F6A95E2F7BD0116
:104500006E2B01C0220F4A95EAF7892F8623681384
:1045100003C0892F822B03C02095822F89230E94FC
:104520006622089521E030E001C0220F8A95EAF763
:1045300020958091890182230E946622089521E0BE
:1045400030E001C0220F8A95EAF780918901822B21
:104550000E946622089580932305089592959F7086
:10456000963079F010F4925001C09A50923068F46D
:10457000803F69F018F4883E40F409C0843F29F474
:1045800006C0883E20F0813F11F080E0089581E070
:104590000895FC012481222371F087819085009782
:1045A00019F00E94902E04C0808191810E94F02118
:1045B0000E94AE22089580E00895A8E1B0E0E3EE05
:1045C000F2E20C9463368C0186E0F801DE0153962A
:1045D00001900D928A95E1F7D80114967C9014977A
:1045E0001596EC9089EAA82E84E0B82E8091AD044F
:1045F000811122C0772009F45BC0EE2009F455C078
:10460000C8010E94C922F82E882309F44EC089E00F
:10461000F801A9EAB4E001900D928A95E1F7809142
:10462000AD04813031F48091A9049091AA040E94D4
:10463000F0210E949331B7C1F80150806180C2809F
:10464000D38060E089EA94E00E941B32F090AE04CF
:104650008091AB049091AC044601881A990A60E0FD
:1046600089EA94E0FF2009F426C10E941B3269EA1E
:1046700074E00E94332A8816990608F0C5C0772096
:10468000B9F08091AF04382F307F2091AA04D8016F
:1046900011969C911197332371F0291709F473C077
:1046A000C8010E94C922811182C0C8010E9452041F
:1046B000FF24F39478C129131FC02091A9049C9171
:1046C00029131AC04091B0045091B10417962D914E
:1046D0003C9118974217530779F4E1100DC08F7081
:1046E00080618093AF0489EA94E00E945204809133
:1046F000AF04F801868356C1E1103BC040E0662D4F
:10470000852D0E946931E82E882329F080919E042E
:1047100080FD3DC147C15B8A6C8A8B899C890E9460
:10472000F021292F22952F70243020F49F70223001
:1047300028F009C02A50223088F015C0992351F082
:10474000811108C014C0992329F0D80116969C91B4
:10475000907F69F0805E883030F409C0803F38F087
:10476000815F833020F0C8010E945204EF2CFE2CA0
:104770001AC18091AF0481608093AF0480919E0440
:1047800081FD10C104C12091A904F8019081291371
:1047900087CF4091B0045091B104278130854217F2
:1047A000530709F07DCFE1107BCF8683D0C0EE2088
:1047B00009F47BCF2091AF04822F82958F7090E017
:1047C0000297BCF08091A9049091AA049B878A87E4
:1047D000DD86CC868091AD048E871F86288B8091E4
:1047E000B0049091B1049A8B898BCE010A960E94F5
:1047F000520489E0F801A9EAB4E001900D928A958B
:10480000E1F70E94933154CF8091AF04982F907FAD
:1048100039F489EA94E00E94520489E0D501BFC0CE
:10482000772009F445CF2091AA04F801918129133A
:104830001AC02091A9049081291315C04091B00499
:104840005091B104278130854217530761F4E1107C
:104850000AC08683C8010E94520489E0D5011D92D6
:104860008A95E9F7A0C0C8010E94C922882309F4EB
:104870001CCFEE2009F419CF2091AF04822F82952E
:104880008F7090E002970CF4B4CF8091A9049091BE
:10489000AA049A838983DC82CB828091AD048D83C4
:1048A0001E822F838091B0049091B10499878887EC
:1048B000CE0101969CCF0E941B3269EA74E00E94EF
:1048C000332A8816990608F05CC0772009F4F0CEE8
:1048D000FE2CEE2009F4E9CE9091AA04F801818122
:1048E000981341C09091A904808198133CC02091F5
:1048F000B0043091B104878190852817390799F564
:104900008091AB049091AC04C81AD90AF8ECCF1688
:10491000D10400F58091AF0480FD1CC082958F709A
:10492000482F50E041155105A9F02091AF04D8015E
:1049300016962C9316974F30510549F08F5F982F9C
:104940009295907F822F8F70892B16968C93C80139
:104950000E94520489E0F801A9EAB4E001900D92A6
:104960008A95E1F720C0C8010E94C922811141CF78
:104970008091AF0481608093AF04C8010E9452040B
:1049800012C089E0F50111928A95E9F70CC089EA15
:1049900094E00E945204E9EAF4E089E0DF011D920C
:1049A0008A95E9F7F12C8F2D6896EFE00C947F360D
:1049B0001092600480910901882331F08091B00148
:1049C00087FF02C08EE101C086E0E3EEF1E0DF0187
:1049D0001D928A95E9F780E090E00E94BA1C80E081
:1049E00090E00E94951C1092CE020E94F030EBEFF6
:1049F000F2E086E0DF011D928A95E9F71092F40259
:104A00001092F5021092F6020E94172C0895A2E16E
:104A1000B0E0EDE0F5E20C946E360A871B872C8738
:104A20003D874E875F87688B798B8A8BCE010A968C
:104A30000E94DD2281113BC089E0FE013A96DE0131
:104A4000119601900D928A95E1F76E85662379F1B2
:104A50002091B20430E0C9010196877099274091F6
:104A6000FB0450E084179507A1F06D8399E0929FB5
:104A7000D001939FB00D1124AD54BB4FFE01319670
:104A800001900D929A95E1F78093B2040E948931CA
:104A90000EC00E94D8241092B2041092FB04E9EADE
:104AA000F4E089E0DF011D928A95E9F719C019E069
:104AB0008091FB049091B204891791F0189FC00176
:104AC00011248D549B4F0E94DD22882349F0809150
:104AD000FB0490E00196877099278093FB04E8CF50
:104AE0006296E4E00C948A36882321F00E947630A6
:104AF0000E94F0300895882339F09091CE02892BDE
:104B00008093CE020E94F0300895882321F00E9405
:104B10007D300E94F0300895882321F00E94843077
:104B20000E94F0300895882399F19CEF980F913AF4
:104B300030F4682F81EE91E00E94381C0DC090E2A5
:104B4000980F983060F4877091E001C0990F8A95B2
:104B5000EAF7892F0E947D300E94F03008959BE58E
:104B6000980F933028F480E090E00E94BA1C0895DA
:104B700098E5980F9B3128F480E090E00E94951C06
:104B8000089593E3980F933118F460E00E94E034A5
:104B90000895CF93882309F4AAC0C82F8CEF8C0FF7
:104BA000813A98F58091B102813081F030F0823005
:104BB00049F58C2F0E948B1F9AC08091600482322D
:104BC00009F05DC08C2F0E940D2057C080916004B9
:104BD0008232C1F3C43199F068F4CB3009F448C093
:104BE000C03109F048C082E08093B10288E30E949E
:104BF0008B1F3EC0C93219F0C833D1F13CC01092AE
:104C0000B10239C01092B1023AC080E28C0F8830F4
:104C100058F4C77081E001C0880FCA95EAF70E9476
:104C200084300E94F03063C0EBE5EC0FE33040F4D9
:104C3000F0E0E25CFE4F808190E00E94BA1C57C019
:104C4000E8E5EC0FEB3150F4F0E0EE0FFF1FEF5B07
:104C5000FE4F808191810E94951C49C083E38C0F97
:104C6000833108F044C061E08C2F0E94E0343FC0E3
:104C700081E0817002C080E0FCCF811138C080915A
:104C800009018823E1F08091B00187FF18C0EC2F63
:104C9000E695E695E695F0E0EF51FE4F8281282FEC
:104CA00030E04C2F477081E090E002C0880F991FE0
:104CB0004A95E2F782239323892B61F412C0E3EE35
:104CC000F1E089EE91E02191C21721F08E179F0744
:104CD000D1F707C06C2F81EE91E00E94381C0E9432
:104CE000F0306C2F81EE91E00E94601C9ACFCF9142
:104CF00008951F93CF93DF93182F893329F4C09120
:104D0000A104D091A20404C0C0919F04D091A0043A
:104D1000812F0E94C925209741F08FE99FE00197DC
:104D2000F1F700C000002197F6CF812F0E94932554
:104D3000DF91CF911F910895A0E0B0E0E2EAF6E2A2
:104D40000C9468364430510508F46CC04091B001B1
:104D500041FBCC24C0F8D12CCC0CDD1C42FB8827B5
:104D600080F9C82FE0E0DE2FCC0FDD1FCC0FDD1F58
:104D7000CC2ADD2A40FBEE24E0F8F12CEC28FD28BB
:104D800043FBAA27A0F9B0E023E0AA0FBB1F2A9596
:104D9000E1F7EA2AFB2A44FBEE27E0F9F0E034E0F1
:104DA000EE0FFF1F3A95E1F7EE29FF2945FB222779
:104DB00020F930E055E0220F331F5A95E1F72E2BF2
:104DC0003F2B46FB882780F990E0E6E0880F991F8B
:104DD000EA95E1F7822B932B47FB442740F950E0FB
:104DE0005695542F442757954795842B952B209102
:104DF000B101322F3170132F00E0082B192B2695AB
:104E00002170B22EBB0CA12C0A291B29012E000CEB
:104E1000220B330BFB01008311832283338380E059
:104E200090E002C08FEF9FEFCDB7DEB7EAE00C94C1
:104E30008436E1E8F4E0848195812AE030E0B9012C
:104E40000E942B3660931001868180930F0182852A
:104E500080930E01848580930D0186859785B90125
:104E60000E942B3660931201808980931101828900
:104E700080930C01848980930B01089580918104B3
:104E80009091820490931401809313010895CF921E
:104E9000DF92EF92FF924430510508F471C0FB019C
:104EA000C080D180E280F3800E94D8248091B0013C
:104EB000C0FA80F9B701A601769567955795479591
:104EC00040FB81F9B701A60122E0769567955795D9
:104ED00047952A95D1F740FB82F9B701A60133E047
:104EE00076956795579547953A95D1F740FB83F9A5
:104EF000B701A601E4E07695679557954795EA9541
:104F0000D1F740FB84F9B701A601F5E076956795E6
:104F100057954795FA95D1F740FB85F9B701A6015A
:104F2000A6E07695679557954795AA95D1F740FBEA
:104F300086F9B701A601B7E076956795579547952D
:104F4000BA95D1F740FB87F98093B0018091B10108
:104F5000D0FA80F999E0F694E794D794C7949A959B
:104F6000D1F7C0FA81F98093B1016091B0017091DD
:104F7000B10184E090E00E940D3680E090E002C034
:104F80008FEF9FEFFF90EF90DF90CF9008959C01FF
:104F9000CA01F9013296459154918417950750F052
:104FA000CB01F9013496659174910E94A43680E09A
:104FB00090E008958FEF9FEF08950F931F93CF9385
:104FC000DF9301E814E0C9E0D2E0CE010E94D135C0
:104FD000F80161918F01681719F0CE010E94EF3539
:104FE0002196CD32F2E0DF0781F7DF91CF911F915B
:104FF0000F910895DA019C012E5F3F4FF901459111
:105000005491F90125913491A217B30758F0FC018E
:105010003496859194910E94A4360E94DD2780E009
:1050200090E008958FEF9FEF089580911501877F9D
:105030008093150182E00E9476308091150184FFF3
:1050400006C08F7E8093150182E00E94843080919B
:10505000150185FF06C08F7D8093150180E20E94B7
:1050600084300E94F0300895662329F02091CE020A
:1050700022602093CE029C0130522115304308F467
:1050800099270E94C6340895009741F0EFE9FFE0A8
:105090003197F1F700C000000197F6CF0895A0E026
:1050A000B0E0E5E5F8E20C9468365C017B01C42EC3
:1050B00089018091150182FF88C0C091A704D09119
:1050C000A804CA15DB0521F0A114B10409F07DC0C4
:1050D000809115018B7F8093150181FD11C0809116
:1050E000A5049091A604A701481B590B81E02091CB
:1050F0001301309114014217530718F480E001C0E6
:1051000081E08170D82E80911501D0FA81F98093C9
:105110001501FE01FF2784E0F695E7958A95E1F7F2
:105120009E012F703327EE0FFF1FEF59FB4F81E0D9
:1051300090E002C0880F991F2A95E2F7DD2029F040
:1051400020813181822B932B06C080959095208100
:10515000318182239323918380838091600481FF36
:1051600008C08091150180618093150182E00E9442
:105170007D308091600485FF08C0809115018062B8
:105180008093150180E20E947D30A8016D2DCE0133
:105190000E943428CC2031F080919C0485FF02C00D
:1051A00086FF2BC080919F049091A0040E94442808
:1051B0008091A7049091A8049C013052211530439E
:1051C00008F499270E94AC3412C0C5019052811591
:1051D000904318F4C501992701C0C5010E94AC3461
:1051E0008091A7049091A804A816B90611F40E9412
:1051F0001528F092A604E092A504CDB7DEB7EAE048
:105200000C9484360F931F93CF93DF9301E814E03F
:10521000C9E0D2E0CE010E94D135F80181938F011F
:105220002196CD32F2E0DF07A9F7C0E0D0E0FE0121
:10523000ED58F84F85919491009711F0FC01099574
:105240002C96CC3FD10599F7DF91CF911F910F910B
:105250000895E1E8F4E0128E138E8FEA90E09183D6
:10526000808325E0248F88E893E1938382838AE01A
:1052700090E09583848344E150E05783468348E07F
:1052800050E051874087938782876EE170E0758791
:1052900064879787868780E590E0918B808B538B1E
:1052A000428B48E250E0558B448B42E350E0578BF1
:1052B000468B48EC50E0518F408F158E178E168E1E
:1052C00091A380A322A30E94DD270E94D8241092DC
:1052D000B1011092B001E1EBF1E080818460808344
:1052E0006091B0017091B10184E090E00E940D36B0
:1052F0000E9402290895AAE0B0E0E1E8F9E20C94E6
:10530000663608EE13E086EDC82E83E0D82E9DECBD
:10531000E92E92E0F92E2FE0922E35EDA32E33E008
:10532000B32E88248394F601019311936F014AE010
:1053300050E0B701CE0101960E94C135F801892DD8
:1053400011928A95E9F789819A81F8019183808386
:105350008F8182838D8183838885848389858583FA
:105360008B819C819783868310868A8587FF03C003
:105370001686158603C0F801B686A58680FF02C092
:10538000F801808681FF04C0F801908592609087C3
:1053900082FF04C0F80190859460908783FF04C069
:1053A000F80190859860908784FF04C0F80190858B
:1053B0009061908785FF04C0F801808580628087B6
:1053C000015F1F4FFAE0EF0EF11C8DE1E81683E05C
:1053D000F80609F0A8CF2A96ECE00C948236AAE0F1
:1053E000B0E0E5EFF9E20C946A3680E5E5E8F3E039
:1053F000DF011D928A95E9F788E3E4E0F2E0DF013E
:105400001D928A95E9F785E8C82E83E0D82E7F01A2
:105410000DE712E0F701D182C0824AE050E0B80106
:10542000CE0101960E94C13588E0FE013196D60179
:1054300001900D928A95E1F789859A85D701139697
:105440009C938E931297BAE0CB0ED11CE7E0EE0E40
:10545000F11C065F1F4F0D3CF2E01F07D9F62A969C
:10546000E8E00C948636AAE0B0E0E9E3FAE20C94B6
:1054700070369C0137552F3F310509F050F4BE01BD
:105480006F5F7F4F0E94901E892B19F489859A8542
:1054900004C08091990490919A042A96E2E00C94B9
:1054A0008C36E5E1F3E080E090E069E17BE240E406
:1054B0005BE22EE83AE27783668351874087338741
:1054C00022879587848701963E968830910599F7C3
:1054D0000895A6E0B0E0EFE6FAE20C9470369093FF
:1054E000020380930103811520E2920718F40E94C1
:1054F000AC3410C080EF89838A830E94031C8160D2
:10550000682F9C838B8349815A817C8181E090E064
:105510000E942A322696E2E00C948C360F931F9359
:10552000CF93DF938C01EB016BE073E08C2F0E9433
:10553000901E892B09F042C080919F049091A00495
:105540000E944428DD27CD5FDC4F8881F80112825C
:105550001882833079F048F4813041F1823071F55E
:1055600080910D0390910E0309C0843051F0853075
:10557000E9F024C080910F03909110030097B1F0DF
:105580001BC080911103909112030097A9F4209100
:105590000B0330910C0380910D0390910E032115A4
:1055A000310541F0009741F4C90106C080910B0319
:1055B00090910C03009711F00E94692ADF91CF911E
:1055C0001F910F910895A6E0B0E0E9EEFAE20C9485
:1055D00070369093020380930103811520E29207B5
:1055E00018F40E94C63410C080EF89838A830E9419
:1055F000031C8160682F9C838B8349815A817C8145
:1056000081E091E00E942A322696E2E00C948C36EA
:10561000CF93DF93EC010E94E32A80919F04909145
:10562000A0040E944428CE010E94692ADF91CF91F4
:1056300008950F931F93CF93DF938C01862F6BE018
:1056400073E00E94901E892BB1F4C0910B03D0919E
:105650000C03209781F0F8018281833039F4CE0168
:105660000E94082BCE010E94082B02C0843018F043
:10567000CE010E94082BDF91CF911F910F910895C9
:105680000F931F93CF93DF938C01EB016BE073E0DB
:105690008C2F0E94901E892B09F067C0DD27F8012E
:1056A0008281813039F4958192FD13C090FF11C041
:1056B00082E00FC0823041F4F801858182FD06C08E
:1056C00080FD06C083E005C086E003C085E001C020
:1056D00084E0CD5FDC4F88838330B1F028F48130E3
:1056E00071F0823031F041C08430A9F0853079F119
:1056F0003CC080910D0390910E030097A1F580911D
:105700000B0390910C0320C080910F039091100324
:105710000097E9F028C0809111039091120300973F
:1057200011F580910B0390910C03009749F00E94B2
:10573000082B80910D0390910E03009781F013C008
:1057400080910D0390910E03009779F00CC0809129
:105750000B0390910C03009741F00E94082B80915D
:105760000B0390910C030E94E32ADF91CF911F91CC
:105770000F91089581152CE7920759F48091B60294
:105780009091B702892B19F480E090E0089580E0B1
:105790009CE7089588E290E00E94EF350895CF934A
:1057A000C82F811102C06FEF01C064E885E290E06C
:1057B0000E94EF35C11102C06FEF01C06CEB86E2B1
:1057C00090E00E94EF35C11102C06FEF01C06EEF93
:1057D00087E290E00E94EF35CF91089580E00E942B
:1057E000CF2B60E070E0CB010E94CA2B0E94CC1E40
:1057F0000E94801E81E00E94CF2B089585E290E0F8
:105800000E94D135843881F486E290E00E94D1353F
:105810008C3B51F487E290E00E94D13591E08E3FBD
:1058200009F090E0892F01C080E0817008950E9406
:10583000031C2091FD02211104C02091FE022223AD
:1058400021F09093FA028093F9022091FF02211136
:1058500004C020910003222321F09093F80280934A
:10586000F702E091D302F091D402309749F082E040
:105870008093FB020480F581E02D8BEF92E0099587
:1058800008958091F60280FF08C060910C0170E0DD
:10589000759567957595679521C081FF06C06091E4
:1058A0000C0170E07595679519C082FF04C0609186
:1058B0000C0170E010C09091F502992399F060916D
:1058C0000B019617A0F780910C01899FC00111244C
:1058D00070E00E943F366038710540F46115710533
:1058E00019F406C061E070E0862F08958FE70895EF
:1058F00081E008958091F6022091890430918A0414
:1059000080FF0CC080910E01829FB001839F700DBB
:10591000112476956795769567952FC081FF0AC00B
:1059200080910E01829FB001839F700D11247695A6
:10593000679523C082FF08C080910E01829FB0014D
:10594000839F700D112419C04091F402411102C0CF
:10595000B90113C060910D01461770F780910E01D7
:10596000849FA0011124429FC001439F900D529F2C
:10597000900D112470E00E942B366038710528F4D8
:105980006115710521F0862F08958FE7089581E054
:10599000089580E008959091B00192FF0DC0282FE6
:1059A0002871283019F4877F846006C0282F24715D
:1059B000243011F48B7F886093FF0DC0282F28714D
:1059C000283119F4877E846106C0282F2471243180
:1059D00011F48B7E88612091B10120FF0DC0382F1A
:1059E0003871383019F4877F816006C0382F3171E3
:1059F000313011F48E7F886021FF0DC0282F28716F
:105A0000283119F4877E816106C0282F2171213148
:105A100011F48E7E886194FD877E08958238910509
:105A200069F1B0F48133910509F475C048F4893205
:105A3000910509F467C08A32910509F471C008958F
:105A40008533910509F459C089339105B9F008955A
:105A5000833E910589F138F4803E9105D1F0823E74
:105A6000910529F10895863E9105C9F1873E91057A
:105A7000D9F1843E910509F06CC027C02091B00196
:105A800020FD57C021FD55C02091B10123FD5BC011
:105A900008958091B00180FD48C08091B10180FFE0
:105AA00048C08091B00184FD46C083EE51C0809112
:105AB000B00182FF3CC0F5CF8091B00182FD37C0BC
:105AC0008091B10180FD35C0ECCF8091B10181FFA3
:105AD00036C08091B00184FD2EC087EE39C0809120
